:020000040800F2
:100000000004002041010008D10C0008D10C0008B8
:10001000D10C0008D10C0008D10C0008D10C00084C
:10002000D10C0008D10C0008D10C0008711A00088E
:10003000D10C0008D10C0008D10C0008D10C00082C
:10004000D10C0008D10C0008D10C0008D10C00081C
:10005000D10C0008D10C0008D10C0008D10C00080C
:10006000D10C0008D10C0008D10C0008D10C0008FC
:10007000D10C0008D10C0008D10C0008D10C0008EC
:10008000D10C0008D10C0008D10C0008D10C0008DC
:10009000D10C0008D10C0008D10C0008D10C0008CC
:1000A000D10C0008D10C0008D10C0008D10C0008BC
:1000B000711D0008D10C0008D10C0008D10C0008FB
:1000C000D10C0008D10C0008D10C0008D10C00089C
:1000D000D10C0008F11E0008D10C0008D10C00085A
:1000E000D10C0008D10C0008D10C0008D10C00087C
:1000F000D10C0008D10C0008D10C0008D10C00086C
:10010000D10C0008D10C0008D10C0008D10C00085B
:10011000D10C0008D10C0008D10C0008D10C00084B
:10012000D10C0008D10C0008D10C0008D10C00083B
:10013000D10C0008D10C0008D10C0008D10C00082B
:1001400072B6224880F30988022080F31488BFF336
:100150006F8F00F0A5FD01F0ABFF4FF055301C494B
:100160001C4A91423CBF41F8040BFAE71A49174A6E
:1001700091423CBF41F8040BFAE71849184A194B61
:100180009A423EBF51F8040B42F8040BF8E70020F6
:100190001549164A91423CBF41F8040BFAE700F0BA
:1001A00087FD134C134DAC4203DA54F8041B884707
:1001B000F9E702F095FC104C104DAC4203DA54F80C
:1001C000041B8847F9E700F07BBD00000008002011
:1001D0000000002000040020000400205830000827
:1001E00000080020480C0020480C0020880F002048
:1001F00040010008400100084001000840010008DB
:100200002DE9F04FC1F80CD0D0F80CD0BDE8F08F3C
:10021000002383F311882846A047002001F068F8E6
:1002200000F0A6FF00DFFEE7000000000000000075
:1002300070B54FF0FF0C4CF4E06C1CEA11541DBF7C
:100240001CEA135594EA0C0F95EA0C0F00F0DEF847
:100250002C4481EA030621EA4C5123EA4C5350EA2C
:10026000013518BF52EA033541F4801143F480137D
:1002700038D0A0FB02CE4FF00005E1FB02E506F00E
:100280000042E0FB03E54FF00006E1FB03569CF063
:10029000000F18BF4EF0010EA4F1FF04B6F5007F69
:1002A00064F5407404D25FEA4E0E6D4146EB0606DB
:1002B00042EAC62141EA55514FEAC52040EA5E5064
:1002C0004FEACE2EB4F1FD0C88BFBCF5E06F1ED80E
:1002D000BEF1004F08BF5FEA500E50F1000041EB45
:1002E000045170BD06F0004646EA010140EA0200F2
:1002F00081EA0301B4EB5C04C2BFD4EB0C0541EA14
:10030000045170BD41F480114FF0000E013C00F328
:10031000AB8014F1360FDEBF002001F0004170BD4C
:10032000C4F10004203C35DA0C341BDC04F1140465
:10033000C4F1200500FA05F320FA04F001FA05F2F1
:1003400040EA020001F0004221F0004110EBD370BE
:1003500021FA04F642EB06015EEA430E08BF20EAEA
:10036000D37070BDC4F10C04C4F1200500FA04F38D
:1003700020FA05F001FA04F240EA020001F000411F
:1003800010EBD37041F100015EEA430E08BF20EA92
:10039000D37070BDC4F1200500FA05F24EEA020EDA
:1003A00020FA04F301FA05F243EA020321FA04F009
:1003B00001F0004121FA04F220EA020000EBD370C0
:1003C0005EEA430E08BF20EAD37070BD94F0000FC0
:1003D0000FD101F00046400041EB010111F4801FF4
:1003E00008BF013CF7D041EA060195F0000F18BFA5
:1003F000704703F00046520043EB030313F4801FE1
:1004000008BF013DF7D043EA0603704794EA0C0F9A
:100410000CEA135518BF95EA0C0F0CD050EA4106B0
:1004200018BF52EA4306D1D181EA030101F000412D
:100430004FF0000070BD50EA410606BF1046194655
:1004400052EA430619D094EA0C0F02D150EA013661
:1004500013D195EA0C0F05D152EA03361CBF1046A2
:1004600019460AD181EA030101F0004141F0FE4141
:1004700041F470014FF0000070BD41F0FE4141F4C5
:10048000780170BD000000000000000000000000C6
:1004900081F0004102E000BF83F0004330B54FEA35
:1004A00041044FEA430594EA050F08BF90EA020FA2
:1004B0001FBF54EA000C55EA020C7FEA645C7FEA35
:1004C000655C00F0E2804FEA5454D4EB5555B8BF58
:1004D0006D420CDD2C4480EA020281EA030382EAC9
:1004E000000083EA010180EA020281EA0303362D5B
:1004F00088BF30BD11F0004F4FEA01314FF4801C2E
:100500004CEA113102D0404261EB410113F0004F3F
:100510004FEA03334CEA133302D0524263EB4303F6
:1005200094EA050F00F0A780A4F10104D5F1200E94
:100530000DDB02FA0EFC22FA05F2801841F10001EF
:1005400003FA0EF2801843FA05F359410EE0A5F1C3
:1005500020050EF1200E012A03FA0EFC28BF4CF0F4
:10056000020C43FA05F3C01851EBE37101F00045AA
:1005700007D54FF0000EDCF1000C7EEB00006EEBB7
:100580000101B1F5801F1BD3B1F5001F0CD3490841
:100590005FEA30004FEA3C0C04F101044FEA445298
:1005A00012F5800F80F09A80BCF1004F08BF5FEA1F
:1005B000500C50F1000041EB045141EA050130BDFF
:1005C0005FEA4C0C404141EB0101013C28BFB1F511
:1005D000801FE9D291F0000F04BF01460020B1FA5C
:1005E00081F308BF2033A3F10B03B3F120020CDA2F
:1005F0000C3208DD02F1140CC2F10C0201FA0CF00D
:1006000021FA02F10CE002F11402D8BFC2F1200C71
:1006100001FA02F120FA0CFCDCBF41EA0C01904027
:10062000E41AA2BF01EB0451294330BD6FEA040470
:100630001F3C1CDA0C340EDC04F11404C4F120025B
:1006400020FA04F001FA02F340EA030021FA04F36D
:1006500045EA030130BDC4F10C04C4F1200220FAC4
:1006600002F001FA04F340EA0300294630BD21FA02
:1006700004F0294630BD94F0000F83F4801306BFC8
:1006800081F480110134013D4EE77FEA645C18BFBC
:100690007FEA655C29D094EA050F08BF90EA020F53
:1006A00005D054EA000C04BF1946104630BD91EA4B
:1006B000030F1EBF0021002030BD5FEA545C05D14E
:1006C0004000494128BF41F0004130BD14F580048D
:1006D0003CBF01F5801130BD01F0004545F0FE4101
:1006E00041F470014FF0000030BD7FEA645C1ABF36
:1006F000194610467FEA655C1CBF0B46024650EA6D
:10070000013406BF52EA033591EA030F41F4002198
:1007100030BD00BF90F0000F04BF0021704730B51E
:100720004FF4806404F132044FF000054FF00001F3
:1007300050E700BF90F0000F04BF0021704730B5B4
:100740004FF4806404F1320410F0004548BF404289
:100750004FF000013EE700BF42004FEAE2014FEADE
:1007600031014FEA02701FBF12F07F4393F07F4FB9
:1007700081F06051704732F07F4208BF704793F0BC
:100780007F4F04BF41F40021704730B54FF46074CF
:1007900001F0004521F000411CE700BF50EA0102D2
:1007A00008BF704730B54FF000050AE050EA01027B
:1007B00008BF704730B511F0004502D5404261EBEB
:1007C00041014FF4806404F132045FEA915C3FF42C
:1007D000D8AE4FF003025FEADC0C18BF03325FEAC9
:1007E000DC0C18BF033202EBDC02C2F1200300FA7A
:1007F00003FC20FA02F001FA03FE40EA0E0021FA9F
:1008000002F11444BDE600BF00000000000000003B
:100810004FEA410212F5001215D211D56FF4787328
:10082000B3EB625212D94FEAC12343F0004343EACB
:10083000505311F0004F23FA02F018BF40427047A6
:100840004FF00000704750EA013005D111F0004030
:1008500008BF6FF0004070474FF00000704700BFC6
:100860004FEA4102B2F1E04324BFB3F5001CDCF1D2
:10087000FE5C0DD901F0004C4FEAC0024CEA50700A
:10088000B2F1004F40EB830008BF20F00100704739
:1008900011F0804F21D113F13872BCBF01F000403C
:1008A000704741F480114FEA5252C2F11802C2F16E
:1008B000200C10FA0CF320FA02F018BF40F00100EF
:1008C0004FEAC1234FEAD32303FA0CFC40EA0C00A1
:1008D00023FA02F34FEA4303CCE77FEA625307D1DE
:1008E00050EA01331EBF4FF0FE4040F44000704715
:1008F00001F0004040F0FE4040F40000704700BFAF
:100900004FF0FF3C06E000BF4FF0010C02E000BFDB
:100910004FF0010C4DF804CD4FEA40024FEA41037D
:100920007FEA226C18BF7FEA236C11D001B052EA33
:10093000530C18BF90EA010F58BFB2EB030088BFF9
:10094000C81738BF6FEAE17018BF40F00100704768
:100950007FEA226C02D15FEA402C05D17FEA236C4A
:10096000E4D15FEA412CE1D05DF8040B704700BF91
:10097000844608466146FFE70FB5FFF7C9FF002828
:1009800048BF10F1000F0FBD4DF808EDFFF7F4FF61
:100990000CBF012000205DF808FB00BF4DF808EDFA
:1009A000FFF7EAFF34BF012000205DF808FB00BF1D
:1009B0004DF808EDFFF7E0FF94BF012000205DF83F
:1009C00008FB00BF4DF808EDFFF7D2FF94BF0120F0
:1009D00000205DF808FB00BF4DF808EDFFF7C8FFE9
:1009E00034BF012000205DF808FB00BF00000000BC
:1009F0004FEA4002B2F1FE4F0FD34FF09E03B3EB2C
:100A000012620DD94FEA002343F0004310F0004F6B
:100A100023FA02F018BF404270474FF000007047C1
:100A200012F1610F01D1420205D110F0004008BF60
:100A30006FF0004070474FF000007047000000006A
:100A400030B4104D10F8012BAB5C03F00303012B05
:100A500011F8013B08BF2032EC5C04F00304012CC8
:100A600006D0D21A0AD1002BECD1184630BC704700
:100A70002033D31AE6D0184630BC7047134630BC3A
:100A800018467047912B000800000000000000008D
:100A900030B40478DCB10D789DB1AC420FD00A4679
:100AA00001E0A3420BD012F8013F002BF9D110F85E
:100AB000014F002CF0D11378002B08BF002030BC70
:100AC000704710F8014F0A46002CE5D1F3E72046A5
:100AD00030BC704700000000000000000000000073
:100AE00070B40478A4B105460E784EB1A6420AD07F
:100AF0000A4601E0A34206D012F8013F002BF9D1CB
:100B0000281A70BC704715F8014F002CEDD1F7E79B
:100B10002046F6E700000000000000000000000092
:100B2000012B2DE9F84F41D0242B98463ED80F4693
:100B3000DFF820C100E02F463D4615F8014B1CF8B8
:100B4000046016F00806F6D12D2C6FD02B2C12BFA6
:100B5000A34695F800B0BD1C002B49D0102B5AD0ED
:100B6000002E14BF4FF000496FF000490027B9FB79
:100B7000F8FEBC4608FB1E9A07E0E64513D332D0C8
:100B800001270CFB084C15F801BBABF13004092C14
:100B900005D9ABF14104192C11D8ABF13704A342AC
:100BA00015DD002FE9DA4FF0FF37ECE700F070F8C1
:100BB00016234FF0000C03606046BDE8F88FABF1E0
:100BC0006104192C03D8ABF15704A342E9DC002FD0
:100BD00026DB0EB1CCF1000C002AEDD06FBB11600A
:100BE0006046BDE8F88FA245CADA4FF0FF37CAE782
:100BF000BBF1300F03D04FF00A084346B0E72B7823
:100C000003F0DF03582B1AD14FF0100895F801B00C
:100C100043460235A4E7BBF1300F14D098469FE756
:100C2000222303603AB1CC46691ED8E795F800B09C
:100C30000126BD1C90E7CC46BEE7E146F3E74FF046
:100C4000080843468CE72C7804F0DF04582CDBD0EE
:100C5000984685E7912B000862E700BF10B4034C6B
:100C600013460A460146206810BC59E700080020D8
:100C700010B4034C13460A460146206810BC4FE7E7
:100C8000000800200000000000000000000000003C
:100C9000014B1868704700BF0008002000000000EA
:100CA000704700BF000000000000000000000000CE
:100CB000704700BF000000000000000000000000BE
:100CC000FEE700BF00000000000000000000000080
:100CD000FEE700BF00000000000000000000000070
:100CE000FEE700BF00000000000000000000000060
:100CF000F0B500244FF6FF00102720261E4B1F4A98
:100D00009C60D9681E4D01400A4300F16040DA60E2
:100D1000A0F60F30C2681B4942F08072C2600A68B8
:100D200083B042F001020A60DF7783F8226000F0AE
:100D30004FF900F07DF800F03BFB00F0B9FD00F04A
:100D4000EFFD2846402100F01BFA0122A5F12C03FB
:100D50000277986184F3118862B60B499B6905F1AB
:100D60004C009961D821094B009400F059FA084BC6
:100D7000836103B0F0BD00BF00ED00E00003FA05A1
:100D8000740C0020001000E0B02C0008E10C0008FA
:100D9000A02C00080000000000000000000000007F
:100DA0002DE9F0474FF080461F4D726AE88CEC69E0
:100DB00092B22389111A89B28B4288BF05F11C09AE
:100DC00022D800274FF0200805F11C090EE087F318
:100DD00011882069D04788F31188726AE88CEC6921
:100DE00092B22389111A89B28B420DD82268184415
:100DF0004A45D4F80CA0E884C2F80490EA61E760A0
:100E0000E5D100F08DFEE2E74C450BD0BDE8F047A0
:100E10001844801A80B202282CBF1018901C80B28F
:100E200000F086BEBDE8F087480C002000000000FE
:100E30004FF6FF71034B03F11C02C3E9072259620D
:100E4000704700BF480C00200000000000000000B8
:100E5000F8B51F4E054634464FF08047786AEA6081
:100E600054F81C2F022938BF0221A2422B6180B204
:100E700021D0F48C014488B21389041BA4B2A3428C
:100E800014D89C4205D91268E41A1389A4B2A3426B
:100E9000F9D34FF6FF715368C5E900231D60556013
:100EA0002C8113891C1B1481B184F8BD00F040FE15
:100EB000F2691389E5E70B18F084C6E9075598B283
:100EC000C5E900222981BDE8F84000F021BE00BF3D
:100ED000480C00200000000000000000000000009E
:100EE0001C4B10B4DA6982420FD0D0E900210024F3
:100EF0000A6002681C339A425160C46003D00189C1
:100F000013890B44138110BC7047184600241168E4
:100F100040F81C1F81424860D46018D04FF08040D8
:100F2000406A1289DC8C0B8980B21344021B9BB28D
:100F300092B293420B81E6D9241A23449BB2022B2E
:100F40002CBFC018023010BC80B200F0F1BD10BC44
:100F500000F0E6BD480C002000000000000000008A
:100F6000202383F31188037F072B0DD8DFE803F0DC
:100F7000260C0C2208040C08026A93680133936063
:100F8000D0E9003213605A60002210B44FF0FF34F1
:100F900081680C4B046202771B689A688A42FBD214
:100FA0005A680021C0E900321060586081F311884E
:100FB00010BC70470022036A1A60E5E7002383F340
:100FC00011887047480C002000000000000000005D
:100FD0000022034BC3E90033C3E904339A6070472E
:100FE000480C00200000000000000000000000008D
:100FF00000228168054B02771B689A688A42FBD2FF
:101000005A68C0E90032106058607047480C0020F0
:1010100030B40125064B99691A68087714681046A0
:10102000636015771C6030BC9A61FFF7E9B800BFB8
:10103000480C00200000000000000000000000003C
:101040004FF6FF7330B5994287B012D004460C4D6D
:101050000C4AAB6901A8FFF7FBFE2046FFF7D8FF5B
:10106000049B13B101A8FFF73BFFAB69186A07B0F7
:1010700030BDFFF7CDFF024DAB69186A07B030BD38
:10108000480C0020610F0008000000000000000074
:10109000134B70B49E698468B5680162AC420CD889
:1010A000002202771B689A689442FBD970BC5A6888
:1010B000C0E9003210605860704700211A4631774D
:1010C00012689468A542FBD901245168C6E9002141
:1010D0000E6056603146047770BC9861FFF790B897
:1010E000480C00200000000000000000000000008C
:1010F000044B1A689B6990689B68984294BF0020D3
:1011000001207047480C0020000000000000000093
:101110000C4AF0B40127002613461068916905684F
:101120008C6815606A60077790610E771B689A6813
:101130009442FBD3F0BC5A68C1E900321160596097
:10114000FFF75EB8480C002000000000000000001F
:10115000044B1A689B6992689B689A4200D8704752
:10116000FFF7D6BF480C0020000000000000000080
:10117000FFF7CEBF000000000000000000000000EC
:1011800070B40225012600240A4A858355698160CE
:10119000C163867700F1280100F12406C0E9042527
:1011A000C0E90D44846128614662C0E90A1170BC3F
:1011B00050617047480C0020000000000000000053
:1011C000F0B54FF0010C00264FF0020E24394718FD
:1011D000C7604350059B0D4D7B600D4B00F1240112
:1011E0003B628260C2636A6900F12803C0E904526D
:1011F000C0E90D66A0F81CE080F81EC08661106191
:10120000C0E90A3341626861F0BD00BF480C0020AC
:1012100011020008000000000000000000000000B3
:101220002DE9F0410D4604461946202383F3118829
:1012300000264FF0010E4FF00208243D4319C36011
:1012400041510699104F5960104919627969C2637A
:10125000826000F1280300F12402C0E90471C0E9B2
:101260000D66A0F81C8080F81EE08661086131469A
:10127000C0E90923C3627861FFF70AFF86F311888A
:101280002046BDE8F08100BF480C00201102000894
:1012900008B50146202383F311880820FFF7D0FE0C
:1012A000002383F3118808BD000000000000000047
:1012B00038B503460D4A9469606A04F12405A842D2
:1012C000236206D003686362FFF792FE606AA84259
:1012D000F8D1637F9B0703D1D4E9043213615A61CB
:1012E0000F20BDE83840FFF793BE00BF480C002038
:1012F000202383F31188FFF7DBBF00BF000000004D
:1013000061B10346074A10B4926944680420C2E9F7
:101310000034226010BC5A60FFF792BE4FF0FF30DD
:10132000704700BF480C00200000000000000000D3
:1013300003460068834205D002681A605360016268
:10134000FFF756BE704700BF00000000000000001D
:10135000014B5B6883607047001000E000000000F4
:101360000E4A0F4B116F5B6882685B1A9B1AC2684A
:1013700030B4D0E9044541680132E418C0E90232D2
:10138000026845F100058B4288BF43609342C0E983
:10139000044530BC38BF0360704700BF480C0020D4
:1013A000001000E00000000000000000000000004D
:1013B000D0B500234FF0FF320026002786B0094C3D
:1013C0006846CDE90133039323670092CDE90467B2
:1013D000FFF7BEFF6846FFF7C3FF029B236706B017
:1013E000D0BD00BF480C002000000000000000003D
:1013F0000146202383F31188837F0022013BDBB267
:10140000837782F3118813B9037F0F2B00D07047C5
:10141000437F03F00303012B09D0022B06D1D0E94F
:101420000432006C13615A6100F012BB7047D0E9BE
:1014300004231A610269536100F0C2BA000000007F
:10144000F0B583B016461F460D4600F079FAA8B1F4
:10145000202383F31188089B3246294600933B469C
:10146000FFF7AEFE0123002143770446FFF710FE8D
:10147000002383F31188204603B0F0BD04462046C4
:1014800003B0F0BD000000000000000000000000FC
:101490000023C0E900008360704700BF0000000027
:1014A000F8B504462C4B80689D6928B3AA68836808
:1014B000934206D2037F8260062B35D0072B20D0C3
:1014C0009BB1234603E09968AA68914202D31B6846
:1014D0009C42F8D15A680620C5E9003215605D606B
:1014E0002C62BDE8F840FFF793BDD0E900321360ED
:1014F0005A60FFF77DFDE4E7AB6BC4E90253AC63D0
:10150000F8BD066A47680168334639604F6002E0FB
:1015100099688A4202D81B689E42F9D15A68C0E98C
:10152000003210605860CCE7066A476801683346AD
:1015300039604F6002E099688A4202D81B689E4277
:10154000F9D15A68C0E9003210605860B068AA68E2
:1015500083689342AED3B4E7480C0020000000003B
:1015600008B5202383F31188FFF79AFF002383F344
:10157000118808BD0000000000000000000000000D
:1015800038B5164B01469D69202383F31188C36843
:101590000068AB6388421BD0EC6B4BB11A68934276
:1015A00003D09268944238BF1446DB68002BF5D113
:1015B000826B0368AC600B605960C1E90202816311
:1015C000FFF716FDFFF7C4FD002383F3118838BD34
:1015D00000238360002383F3118838BD480C00206A
:1015E000426B037F11430A2B416309D00B2B00D0C0
:1015F0007047036A8B43FBD100230362FFF7F8BCFB
:10160000036A1942F8D17047000000000000000092
:1016100070B50468A0420FD006460D46E3682B4320
:10162000E36015B12269134203D0D4E90101FFF749
:10163000D7FF2468A642F1D170BD00BF00000000B2
:1016400030B40025029C0A4485600462C0E90000B1
:1016500030BCC0E90511C1600261C361704700BFC1
:10166000D0E90532934211D0826810B501325C1C7A
:10167000826044611970D0E904329A4201D3C36890
:1016800043610021FFF754FE002010BD8268002A4C
:10169000EAD06FF003007047000000000000000077
:1016A00070B520230E46044683F31188C3693BB10D
:1016B000984705E031462046FFF722FE002813DB5D
:1016C000A568002DF6D0A169A36825694A1C013BD5
:1016D000AA42A36028BFE368A261087828BFA3617B
:1016E000002383F3118870BD85F3118870BD00BF9E
:1016F0002DE9F04F83B004468A4601921D46D0F88A
:101700001C904FF0200888F311880026B346B9F1E9
:10171000000F07D02046C84704E029462046FFF7BF
:10172000EFFDD0B9A768002FF7D0A269A368511CBC
:10173000013BA161A36013780AF8013B2369A26908
:101740009A4224BFE368A3618BF31188019B0136A1
:10175000B34204D088F31188D9E787F31188304663
:1017600003B0BDE8F08F00BF0000000000000000E3
:1017700030B4029C8D18C0E90315C0E9073430BCB1
:10178000C0E90000C0E90511826070470000000058
:10179000F8B504460F461646202383F3118805E06A
:1017A00031462046FFF7ACFD002817DBA568002D69
:1017B000F6D06269A368511C013B6161A360177098
:1017C000D4E904329A4224BFE3686361E3690BB150
:1017D00020469847002080F31188F8BD85F31188D2
:1017E000F8BD00BF00000000000000000000000085
:1017F00038B5D0E905239A420FD082680569591C93
:10180000013282608161A9421C7801D3C36883617F
:101810000021FFF78DFD204638BD8268002AECD0FC
:101820006FF0020038BD00BF0000000000000000A3
:101830002DE9F04F9B4683B004460B461646D0F880
:101840001C804FF0200989F311880027BA46A5684B
:1018500005B31D466269A368511C013B6161A36029
:1018600015F8013B1370D4E904329A4224BFE368AF
:101870006361B8F1000F01D02046C0478AF3118898
:10188000013E07F101070FD089F311882B46A568A7
:10189000002DDED1594620460193FFF731FD019B13
:1018A0000028D4D085F31188384603B0BDE8F08F06
:1018B000054A064B0648074922F0070223F00703B2
:1018C00002600B60704700BF8F0F002000500020A7
:1018D0009C0D0020980D002000000000000000007A
:1018E0002022034682F311880849094A08681268D1
:1018F000073323F00703121A93429ABF1B180B6099
:101900000020002383F31188704700BF9C0D002046
:10191000980D002000000000000000000000000002
:101920000022044B044903F11000C3E902221960AC
:10193000FFF7AEBDA00D0020E11800080000000078
:10194000F8B51E4ECD1D002818BF064606F110073B
:10195000384625F0070506F10804FFF701FE02E00E
:101960006368AB4212D222462468002CF8D1384674
:10197000FFF706FE33683BB105F10800984718B140
:10198000C0E9006500F108042046F8BD05F1080033
:10199000834208D223681360384644F8086BFFF787
:1019A000EFFD2046F8BD5B1BA3F1080C236821184E
:1019B0002350C1F804C011606560EDE7A00D002060
:1019C000F8B550F8085C064605F11007A0F10804C8
:1019D00008353846FFF7C4FD2B46AB421A6801D0E4
:1019E000A34202D21AB1A24201D81346F5E746F843
:1019F000082C56F8042C1C6056F8081CB0188142BC
:101A00000AD0596801F108021A44944210D03846AD
:101A1000BDE8F840FFF7B4BD4868083209680244E1
:101A200046E90212596801F108021A449442EED1C3
:101A300056E9020208321144C3E900013846BDE804
:101A4000F840FFF79DBD00BF00000000000000004F
:101A5000202383F31188026800230A60016083F366
:101A60001188704700000000000000000000000026
:101A700080B400AFEFF30983203383F30988002398
:101A800083F31188BD4680BC704700BF0000000092
:101A900098B5202300AF83F311880E4B5B6813F4D5
:101AA000006302D183F3118898BDEFF309844FF0EE
:101AB0008072A4F1200344F8042C83F30988FFF713
:101AC00017FB18B1044B44F8083C98BD034B44F88D
:101AD000083C98BD00ED00E0210200082402000847
:101AE00008B500F0E5F8054800F082F900F068F864
:101AF00000F0E6FABDE8084000F002B8202D00082A
:101B000000F04EB9000000000000000000000000DE
:101B10004FF080430021022258631961DA60704758
:101B20004FF080430022DA60704700BF00000000E1
:101B30004FF0804358637047000000000000000031
:101B40000C30FFF7D5BD00BF000000000000000012
:101B50004FF6FF730C30FFF7CBBD00BF0000000055
:101B60003030FFF765BE00BF00000000000000003D
:101B70004FF6FF733030FFF75BBE00BF0000000080
:101B80000C30FFF78DBD00BF00000000000000001A
:101B90004FF6FF710C30FFF783BD00BF000000005F
:101BA0003030FFF7F5BD00BF00000000000000006E
:101BB0004FF6FF723030FFF7EBBD00BF00000000B2
:101BC00000F02EBA0000000000000000000000003D
:101BD00070B50446012615460C4A82B0009040F8C4
:101BE000042B0B46606004F1540104F10C00102238
:101BF0002672FFF725FD2B461022009404F16401A4
:101C000004F13000FFF7B4FD02B070BDD02C000825
:101C100010B52023044683F3118800F011FA022244
:101C20000023227283F3118810BD00BF0000000062
:101C300038B5436904460D463BB1294604F10C0012
:101C4000FFF70EFD00280BDB38BD04210844FFF729
:101C5000DFFC294604F10C00FFF702FD0028F3DA4F
:101C6000201D8021BDE83840FFF7D2BC00000000F5
:101C70000122430910B49B0000F16044090104F5FE
:101C8000614403F1604300F01F00C9B284F80013FF
:101C900003F5614302FA00F0C3F8800110BC18603C
:101CA000704700BF000000000000000000000000BE
:101CB00000224FF0FF300B4B10B41C6918611A6101
:101CC000DC68D860DA60DA69074942F08052DA618C
:101CD000DA6910BC42F00062DA610B6843F4807389
:101CE0000B607047001002400070004000000000D0
:101CF0001B4B1A46196841F00101196013689807D7
:101D0000FCD500201368164903F0F90313605060F6
:101D10004B6813F00C0FFBD10B68114A43F480336E
:101D20000B6013689903FCD553680D4943F4E8131D
:101D30005360136843F0807313600B689B01FCD5FC
:101D40001222084B084848601A604B68044A43F066
:101D500002034B60536803F00C03082BFAD1704761
:101D6000001002400020024000641D00000000003E
:101D70004FF080431A69920701D4FFF789BE10B56E
:101D8000002420221C6182F31188FFF709F884F3F4
:101D90001188BDE81040FFF77BBE00BF00000000C7
:101DA00070B401244FF08043002248F69F464FF65E
:101DB000FF750B48C1692143C1610A48416841F47C
:101DC000006141609E620821DD621C209A615A63B5
:101DD000DA605A605C611C6070BCFFF749BF00BFED
:101DE00000100240002004E000000000000000009D
:101DF000164930B48A69164B42F07D028A61026846
:101E0000144CDA608568A1F580315D604568124A3E
:101E10001D60C56803F58053E56045696560056927
:101E200025608469CC60046A4C60C4690C60416AB6
:101E3000D160C16A5160816A1160026BDA60826BA5
:101E40005A60426B1A6030BC704700BF00100240FD
:101E500000080140000C0140001401400000000097
:101E6000032AF0B42DD0042A08BF416100230827BB
:101E70001D461C461E46DFF850C01CF8022011F01B
:101E8000800F4FEA04144FEA03134FEA06164FEA95
:101E900005150CBF44F00F04134311F4004F0CBFA1
:101EA00046F00F061543013F4FEA4101E7D1426872
:101EB0001640354345600268144023430360F0BC7C
:101EC00070470161D2E700BFF02C0008000000005D
:101ED000034A93899BB243F080039381704700BF0C
:101EE0000038014000000000000000000000000079
:101EF0002DE9F843474F7E6FB5893388ADB2DA05D7
:101F00009CB255D4202383F3118814F02F0F31D0C5
:101F1000DFF80881A8F1040908E0B188A00689B2B9
:101F20001ED4348804F02F03A4B21BB32307F4D0CB
:101F300014F0080F0CBF00218021E00748BF41F0DA
:101F40002001A20748BF41F04001630748BF41F4A8
:101F500080714046FFF75CFBB188A00689B2E0D5EE
:101F60004846C9B2FFF764FE348804F02F03A4B2D8
:101F7000002BDBD1002383F31188290601D522062B
:101F800025D4630610D5202383F31188D7E91123C4
:101F90009A422CD04FF6BF7225F04005ADB2B58104
:101FA0000023328083F31188BDE8F843FFF770BD4A
:101FB000202383F311884FF40071381DFFF728FBAD
:101FC0004FF6FF620023328083F311889AE72023C3
:101FD00083F311881048FFF70BFC00280FDB80B259
:101FE000B080002383F311886306DDD5CBE7BB6B9C
:101FF000002BCFD010210948FFF70AFBCAE70821C0
:102000000648FFF705FB25F0C00343F04003B3810A
:10201000E7E700BFC00D0020F00D0020C40D002038
:1020200010B5044C00212046034AFFF7D1FD034BB5
:10203000636710BDC00D0020D11E000800380140AC
:1020400038B5174C037A002918BF0C46012B0546FA
:1020500019D02168134A6B6FB2FBF1F2002592B2DE
:102060001A81A288E088218942F4045242F02C02AD
:1020700040F0400041F00101188299829A811D8050
:102080001A889B8838BD084B9842E2D1074A0C2138
:102090009369252043F480439361FFF7E9FDD8E776
:1020A000102D000800512502C00D00200010024034
:1020B000FFF71EBE0000000000000000000000004E
:1020C000024A536843F08063536070470000014048
:1020D0000EB400B582B003AA52F8041B019200F0BE
:1020E000FFF902B05DF804EB03B070470000000098
:1020F00000290CDC202383F311884FF08042002359
:10210000526A83F31188044992B2FFF7E1BF034A90
:102110000349FFF7DDBF00BF742D0008602D0008E4
:10212000682D000800000000000000000000000012
:1021300000292EDC10B5044682B0184A1849FFF772
:10214000C7FF2046174A1849FFF7C2FF2046174A23
:102150001749FFF7BDFF2046164A1749FFF7B8FF9A
:102160002046164A1649FFF7B3FF2046154A16497E
:10217000FFF7AEFF2046154A1549FFF7A9FF154B9B
:1021800020460093144A154B1549FFF7A1FF02B0F2
:1021900010BD144A1449FFF79BBF00BF882D0008EB
:1021A000902D0008A42D0008E42D0008F82D00084B
:1021B000002E0008142E0008202E0008342E0008DF
:1021C0004C2E0008602E00088C2E0008A02E00085F
:1021D000B02E0008EC2E0008C82E0008C42E0008FF
:1021E000D42E0008802D0008682D00080000000093
:1021F00038B50D4698B10446286020460C49FEF7D4
:102200006FFC044420460A49FEF742FC68B10023F3
:10221000421C2A600370237823B1204638BD0C6825
:10222000002CEAD10024204638BD2860F3E700BF27
:10223000002F000800000000000000000000000067
:10224000014B1B60704700BF380E002000000000EB
:1022500000B583B00090034B0020FFF7F1F803B006
:102260005DF804FB112300080000000000000000DE
:10227000F0B50F4604460D46013A83B08E18236828
:10228000012220465B680DF10701984748B39DF88D
:102290000710042928D0082910D07F290ED00D2935
:1022A00029D01F29EBD9B542E9D2236820469B6883
:1022B00098479DF8073005F8013BE0E7BD42DED0C6
:1022C000236820469B6898472368202120469B6806
:1022D0009847236820469DF807109B68013D984762
:1022E000CDE7012003B0F0BD20460749FFF7F0FE1F
:1022F000012003B0F0BD20460449FFF7E9FE0020AD
:10230000287003B0F0BD00BF102F0008C02E0008D9
:102310002DE9F04F624B06689B69624AD0F804A031
:102320006149304697B09A61FFF7D2FE5F4FDFF800
:10233000A881DFF8A89139463046FFF7C9FE402250
:10234000304606A9FFF794FF834600285AD1694614
:1023500006A8FFF74DFF69460546002001ACFFF7D0
:1023600047FF60B1BBF1040F25D044F8040B694668
:1023700000200BF1010BFFF73BFF0028F2D116AB59
:1023800003EB8B0343F8540C002DD4D04146284670
:10239000FEF756FBB0B9BBF1000F50D1202383F3F9
:1023A000118800214248FFF733F90020FEF780FF33
:1023B00017B0BDE8F08F30463E49FFF789FE002395
:1023C0000593B8E749462846FEF73AFB40B9BBF10A
:1023D000000F1CD04A4630463749FFF779FEAAE77E
:1023E000364C206818B930E054F8080F68B3294615
:1023F000FEF726FB0028F7D159463046636801AA4C
:10240000984798E730462E49FFF762FEC6E72B4C07
:1024100030462C49FFF75CFE226842B12A4D29461E
:102420003046FFF755FE54F8082F002AF7D1BAF1CD
:10243000000F1BD130462549FFF74AFE7BE7424695
:1024400030461D49FFF744FE75E7BAF1000F1CD076
:10245000DAF80000C8B1544602E054F8080FA0B101
:102460002946FEF7EDFA0028F7D1C5E7DAF8002093
:10247000002ADFD05446144D29463046FFF728FE87
:1024800054F8082F002AF7D1D4E72A4630461049DD
:10249000FFF71EFE30460F49FFF71AFE4BE700BF5D
:1024A000480C0020202F0008282F0008402F00088B
:1024B000380E0020542F0008682D0008300C002032
:1024C000482F00087C2F0008942F0008C02E000819
:1024D000982F00089C2F00086C2F0008742F00080C
:1024E0000B462DE9F04F8B4613F8011B91B00029E4
:1024F00000F0878292460022814601920EE0019C04
:10250000D9F800200134484692689B4601949047D0
:102510005B4613F8011B002900F0EE802529EED15F
:102520009BF8012000242D2A0ABF012200220BF172
:10253000020319780292302903BF0D4659780133FE
:1025400020255A1C06E05AF8043BDBB212F8011BA6
:1025500003EB4004A1F13003DBB2092B934604EBFB
:102560008400F3D92A29EED02E294FF0000744D059
:1025700001F0DF034C2B4FD0A1F14402342A00F2CA
:102580008D80DFE812F0D9008B008B008B008B0070
:10259000D9008B008B008B008B008B0004018B001B
:1025A0008B008B008B008B002F028B008B00320284
:1025B0008B008B008B008B008B008B008B008B00C3
:1025C0008B008B00F701D9008B0057018B008B002B
:1025D000D9008B008B008B008B008B0004018B00DB
:1025E0008B008B003A018B002F028B008B00320294
:1025F0005AF8043BDBB203EB42071BF8011B07EB65
:102600008702A1F13003DBB2092BF4D92A29EFD0DC
:1026100001F0DF034C2BAFD19BF80020002A3DD006
:10262000A2F144030BF1010B342B36D8DFE813F091
:102630008400350035003500350084003500350054
:10264000350035003500AF00350035003500350068
:102650003500DA0135003500DD0135003500350083
:102660003500350035003500350035003500A20154
:102670008400350002013500350084003500350046
:10268000350035003500AF00350035003500E50078
:102690003500DA0135003500DD011146029A631E6E
:1026A0008DF8281023EAE37452B300270AAE07F12D
:1026B0000108B044D9F8003016F8011B48469B6861
:1026C00098474645F6D1019E0136BB190193002C6F
:1026D0003FF41EAF2746D9F80030294648469B688C
:1026E0009847013FF7D1019B234401935B4613F8C0
:1026F000011B00297FF412AF019811B0BDE8F08FE3
:10270000002BC4F10004D0DD9DF828100AAE2D295D
:10271000A046029F00F040814446D9F80030294687
:1027200048469B6898470134F7D1019B002FA3EBE3
:1027300008030193BBDAEBE65AF804CBBCF1000FB7
:10274000C0F242810AAE374607F10B021146DFF8AC
:10275000EC82A8FB0C03E646DB08184603EB830378
:10276000ACEB43033033DBB2BEF1090F844601F812
:10277000013DEEDC521A3A4401E011F8013F07F83E
:10278000013BBA42F9D1921BA01A571E28E04FF024
:10279000080C0DF133073A465AF8041B00E0424694
:1027A0000846B1FBFCF10CFB110606F13003392B96
:1027B000C8BF06F13703DBB2604502F1FF3802F80B
:1027C000013CECD20AAE38463146A7EB080701E0DF
:1027D00012F8013B824201F8013BF9D1E01B013FB5
:1027E000029B20EAE07423B90028C4F1000400F33E
:1027F000CE80002FBFF65BAF69E75AF8046B002E5E
:1028000000F0EB8047F6FF713278002F08BF0F46CB
:10281000002A00F0FD80314603E0CB433344FB4205
:1028200003D411F8013F002BF7D1891B2025601A32
:102830004F1ED5E70AF1070A2AF0070AFAE8020153
:10284000FEF70EF800218046FEF7A8F8002840F0B9
:10285000B1800AAE03964046FDF77EFF013F082F88
:10286000CDE9040100F2C480734B53F827301F46B2
:1028700018460793FDF74EFF3A46704BCDE9080125
:10288000A3FB0223DF084046FEF7B2F8039B014694
:102890000B339E46DFF8A4810693A8FB01238C46E8
:1028A000DB081A4603EB8303A1EB43033033DBB2AF
:1028B000BCF1090F11460EF8013DEED89846069B73
:1028C000DDF80CC07146A3EB0E0E62464346F4449D
:1028D00001E011F8013F02F8013B6245F9D12E23D6
:1028E00003990EF1FF3E714413708846FDF722FFF5
:1028F00002460B46DDE90401FDF7CEFDDDE90823C4
:10290000FDF796FCFDF784FFAC46079B08F10D022E
:10291000092B98BF0746DFF824E108F1020304926F
:1029200003930694AEFB00133D46DB081946AEFB4D
:10293000074703EB8303A0EB43033033DBB2092DDE
:10294000084602F8013D4FEAD707EBD8DDE903104E
:10295000871AB81C6546069C404401E012F8013F06
:1029600001F8013B8142F9D1039B3B449F1BE01BD3
:10297000013F35E75AF8042B631E8DF82820029A90
:10298000202523EAE374002A7FF48FAEB8E6A04640
:1029900031782D297FF4C0AE302D7FF4BDAED9F84B
:1029A0000020484692689047019B0136013301930D
:1029B000013FB1E62D238DF828300DF1290308F1F0
:1029C000004803930AAE46E72D23CCF1000C8DF8A6
:1029D00028300DF129070AAEB6E6BFB947F6FF77F2
:1029E000174E18E74FF00A0CD3E64FF0100CD0E664
:1029F0000FA3D3E90023CDE90823124B124F07930D
:102A000041E70191019811B0BDE8F08F0C4E02E74B
:102A1000029B33B9002CC4F1000804DC4446202595
:102A200055E6202553E620254FF0FF37B0E700BFDD
:102A30000000000065CDCD41C02F0008CDCCCCCC2E
:102A4000B02F000800CA9A3B00E1F5050000000025
:102A500008B5064B064A9B69064C9A61E368C82094
:102A600083F40053E360FEF713FCF7E7480C002003
:102A7000F02F0008001001400000000000000000DE
:102A80000EB400B582B003AA52F8041B0192FFF7FE
:102A900027FD02B05DF804EB03B0704700000000B2
:102AA00038B5144605460A2200212068FEF7E0F8F2
:102AB00003460A22002160681C46FEF7D9F8034944
:102AC00022182846BDE83840FFF7DABF003000087A
:102AD0000149FFF7D5BF00BF10300008000000001B
:102AE00000B5214D83B0FEF7FBFFFEF701F9284644
:102AF00006224FF40051FFF7B3F900244FF40052BF
:102B00001A4B6A614FF4A471402200941848FEF7F2
:102B100087FB10224FF400711648FFF7A1F902223B
:102B20004FF480611348FFF79BF92146124826466F
:102B3000FFF76EF8114CFFF783FB114D05E0037FA3
:102B40000F2B0DD0C820FEF7A3FB20680028F6D17C
:102B500040224FF432712846FFF77AFB2060F1E7FC
:102B6000FEF746FC2660EDE700100140512A000800
:102B7000400E002000080140C00D00203C0E002047
:102B800050300008000000000000000000000000BD
:102B9000002020202020202020202828282828202D
:102BA0002020202020202020202020202020202025
:102BB000208810101010101010101010101010108D
:102BC000100404040404040404040410101010107D
:102BD0001010414141414141010101010101010147
:102BE0000101010101010101010101011010101099
:102BF0001010424242424242020202020202020219
:102C0000020202020202020202020202101010106C
:102C10002000000000000000000000000000000094
:102C200000000000000000000000000000000000A4
:102C30000000000000000000000000000000000094
:102C40000000000000000000000000000000000084
:102C50000000000000000000000000000000000074
:102C60000000000000000000000000000000000064
:102C70000000000000000000000000000000000054
:102C80000000000000000000000000000000000044
:102C90000000000000000000000000000000000034
:102CA00069646C6500000000000000000000000086
:102CB0006D61696E00160418040244080C101418A3
:102CC000001C1D1E000000000000000000000000AD
:102CD000711B0008511B0008B11B0008911B000864
:102CE000A11B0008811B0008611B0008411B000894
:102CF0000402040808000307080808080808080870
:102D00000B0F0000000000000000000000000000A9
:102D100080250000000000400000000000000000CE
:102D2000FFFFFFFF8888888888888888FFFFFFFF6B
:102D30008888888888888888FFFFFFFF8888888837
:102D400088888888FFFFFFFF888888888888888827
:102D5000FFFFFFFF88888888888888880000000037
:102D600073797374696D650055736167653A2025E1
:102D7000730D0A00256C750D0A00000000000000AC
:102D8000696E666F00000000332E302E34000000A4
:102D90004B65726E656C3A20202020202020257320
:102DA0000D0A000047434320392E322E31203230A5
:102DB000313931303235202872656C65617365298F
:102DC000205B41524D2F61726D2D392D6272616E03
:102DD0006368207265766973696F6E2032373735A4
:102DE00039395D00436F6D70696C65723A2020203F
:102DF000202025730D0A000041524D76372D4D00DD
:102E00004172636869746563747572653A202573ED
:102E10000D0A0000436F727465782D4D3300000079
:102E2000436F72652056617269616E743A20257332
:102E30000D0A0000416476616E636564206B657203
:102E40006E656C206D6F646500000000506F7274D9
:102E500020496E666F3A2020202025730D0A00005D
:102E600053544D33324631307820506572666F725C
:102E70006D616E6365204C696E65204D6564697592
:102E80006D2044656E73697479000000506C617444
:102E9000666F726D3A202020202025730D0A0000F5
:102EA000424C554550494C4C5F4631303300000090
:102EB000426F6172643A2020202020202020257358
:102EC0000D0A0000202D20004D6172203133203288
:102ED000303231004275696C642074696D653A2046
:102EE00020202573257325730D0A000031373A33EE
:102EF000303A3237000000000000000000000000FF
:102F00002009000000000000000000000000000098
:102F10005E4400000000000000000000000000000F
:102F20007368656C6C0000000D0A43686962694F44
:102F3000532F5254205368656C6C0D0A000000003A
:102F400063683E20000000000D0A6C6F676F7574A7
:102F500000000000746F6F206D616E7920617267F0
:102F6000756D656E74730D0A0000000065786974F4
:102F70000000000068656C7000000000436F6D6D1C
:102F8000616E64733A2068656C702065786974209E
:102F9000000000002573200025730000203F0D0A6B
:102FA0000000000000000000000000000000000021
:102FB000286E756C6C290000000000000000000005
:102FC0000A00000064000000E80300001027000071
:102FD000A086010040420F008096980000E1F505B0
:102FE00000CA9A3B00000000000000000000000042
:102FF000626C696E6B6572000000000000000000EA
:10300000526573756C743A20256C690A00000000E3
:1030100053657269616C204F4B0A0000000000008C
:10302000746573740000000063616C63000000004D
:1030300020300008D12A000828300008A12A000802
:103040000000000000000000000000000000000080
:08305000C00D00203030000823
:10305800080800200000000000000000F40A00201A
:103068005C0B0020C40B00200000000000000000E2
:103078000000000000000000000000000000000048
:103088000000000000000000000000000000000038
:103098000000000000000000000000000000000028
:1030A8000000000000000000000000000000000018
:1030B8000000000000000000000000000000000008
:1030C80000000000000000000000000000000000F8
:1030D80000000000000000000000000000000000E8
:1030E80000000000000000000000000000000000D8
:1030F80000000000000000000000000000000000C8
:1031080001000000000000000E33CDAB34126DE664
:10311800ECDE05000B0000000000000000000000CD
:103128000000000000000000000000000000000097
:103138000000000000000000000000000000000087
:103148000000000000000000000000000000000077
:103158000000000000000000000000000000000067
:10348800802D000831210008602D0008F120000877
:0834980000000000000000002C
:0400000508000141AD
:00000001FF
